{"contracts/LuxuryProductMarketplace.sol":{"LuxuryProductMarketplace":{"abi":[{"inputs":[],"stateMutability":"nonpayable","type":"constructor"},{"anonymous":false,"inputs":[{"indexed":false,"internalType":"bytes32","name":"certHash","type":"bytes32"}],"name":"CertHashCreated","type":"event"},{"anonymous":false,"inputs":[{"indexed":false,"internalType":"uint256","name":"id","type":"uint256"},{"indexed":false,"internalType":"string","name":"name","type":"string"},{"indexed":false,"internalType":"uint256","name":"price","type":"uint256"},{"indexed":false,"internalType":"address","name":"seller","type":"address"},{"indexed":false,"internalType":"bytes32","name":"certHash","type":"bytes32"}],"name":"ProductAdded","type":"event"},{"anonymous":false,"inputs":[{"indexed":false,"internalType":"uint256","name":"id","type":"uint256"},{"indexed":false,"internalType":"address","name":"buyer","type":"address"},{"indexed":false,"internalType":"uint256","name":"price","type":"uint256"}],"name":"ProductBought","type":"event"},{"inputs":[{"internalType":"string","name":"_name","type":"string"},{"internalType":"uint256","name":"_price","type":"uint256"},{"internalType":"bytes32","name":"_certHash","type":"bytes32"}],"name":"addProduct","outputs":[],"stateMutability":"nonpayable","type":"function"},{"inputs":[{"internalType":"uint256","name":"_productId","type":"uint256"},{"internalType":"bytes32","name":"_certHash","type":"bytes32"}],"name":"buyProduct","outputs":[],"stateMutability":"payable","type":"function"},{"inputs":[{"internalType":"string","name":"_productName","type":"string"},{"internalType":"string","name":"_serialNumber","type":"string"},{"internalType":"string","name":"_manufacturer","type":"string"},{"internalType":"uint256","name":"_issueDate","type":"uint256"}],"name":"createCertHash","outputs":[{"internalType":"bytes32","name":"","type":"bytes32"}],"stateMutability":"pure","type":"function"},{"inputs":[],"name":"platformOwner","outputs":[{"internalType":"address","name":"","type":"address"}],"stateMutability":"view","type":"function"},{"inputs":[],"name":"productCount","outputs":[{"internalType":"uint256","name":"","type":"uint256"}],"stateMutability":"view","type":"function"},{"inputs":[{"internalType":"uint256","name":"","type":"uint256"}],"name":"products","outputs":[{"internalType":"uint256","name":"id","type":"uint256"},{"internalType":"string","name":"name","type":"string"},{"internalType":"uint256","name":"price","type":"uint256"},{"internalType":"address payable","name":"seller","type":"address"},{"internalType":"bytes32","name":"certHash","type":"bytes32"},{"internalType":"bool","name":"isSold","type":"bool"}],"stateMutability":"view","type":"function"},{"inputs":[{"internalType":"uint256","name":"_productId","type":"uint256"}],"name":"showCertHash","outputs":[{"internalType":"bytes32","name":"","type":"bytes32"}],"stateMutability":"view","type":"function"},{"inputs":[{"internalType":"uint256","name":"_productId","type":"uint256"},{"internalType":"bytes32","name":"_certHash","type":"bytes32"}],"name":"verifyCertificate","outputs":[{"internalType":"bool","name":"","type":"bool"}],"stateMutability":"view","type":"function"}],"evm":{"bytecode":{"linkReferences":{},"object":"6080604052600060015534801561001557600080fd5b50600080546001600160a01b03191633179055610cec806100376000396000f3fe60806040526004361061007b5760003560e01c8063b2c333671161004e578063b2c333671461013f578063bfa88c4914610152578063c3b451a214610172578063e0f6ef87146101a257600080fd5b80630c09d4da1461008057806330e6e962146100a25780634df8ccb1146100d55780637acc0b201461010d575b600080fd5b34801561008c57600080fd5b506100a061009b3660046109db565b6101b8565b005b3480156100ae57600080fd5b506100c26100bd366004610a29565b610319565b6040519081526020015b60405180910390f35b3480156100e157600080fd5b506000546100f5906001600160a01b031681565b6040516001600160a01b0390911681526020016100cc565b34801561011957600080fd5b5061012d610128366004610a29565b610365565b6040516100cc96959493929190610a9e565b6100a061014d366004610ae7565b610430565b34801561015e57600080fd5b506100c261016d366004610b09565b610734565b34801561017e57600080fd5b5061019261018d366004610ae7565b61076d565b60405190151581526020016100cc565b3480156101ae57600080fd5b506100c260015481565b6000821161020d5760405162461bcd60e51b815260206004820152601d60248201527f5072696365206d7573742062652067726561746572207468616e20302e00000060448201526064015b60405180910390fd5b6001805490600061021d83610b99565b90915550506040805160c08101825260018054808352602080840188815284860188905233606086015260808501879052600060a086018190529283526002825294909120835181559351805193949361027e93850192919091019061089f565b50604082810151600283015560608301516003830180546001600160a01b0319166001600160a01b039092169190911790556080830151600483015560a0909201516005909101805460ff191691151591909117905560015490517feb7838ab9c4979f3f2402dada1c19d5e0800050c8fc07d9168a03ee4c942cb6f9161030c918690869033908790610bc2565b60405180910390a1505050565b60008160008111801561032e57506001548111155b61034a5760405162461bcd60e51b815260040161020490610c01565b60008381526002602052604090206004015491505b50919050565b6002602052600090815260409020805460018201805491929161038790610c38565b80601f01602080910402602001604051908101604052809291908181526020018280546103b390610c38565b80156104005780601f106103d557610100808354040283529160200191610400565b820191906000526020600020905b8154815290600101906020018083116103e357829003601f168201915b50505050600283015460038401546004850154600590950154939491936001600160a01b03909116925060ff1686565b8160008111801561044357506001548111155b61045f5760405162461bcd60e51b815260040161020490610c01565b600083815260026020526040902060050154839060ff16156104c35760405162461bcd60e51b815260206004820152601e60248201527f50726f647563742068617320616c7265616479206265656e20736f6c642e00006044820152606401610204565b6000600260008681526020019081526020016000206040518060c0016040529081600082015481526020016001820180546104fd90610c38565b80601f016020809104026020016040519081016040528092919081815260200182805461052990610c38565b80156105765780601f1061054b57610100808354040283529160200191610576565b820191906000526020600020905b81548152906001019060200180831161055957829003601f168201915b50505091835250506002820154602082015260038201546001600160a01b03166040808301919091526004830154606083015260059092015460ff161515608090910152810151909150341461060e5760405162461bcd60e51b815260206004820152601b60248201527f496e636f72726563742045746865722076616c75652073656e742e00000000006044820152606401610204565b8060800151841461067f5760405162461bcd60e51b815260206004820152603560248201527f436572746966696361746520646f6573206e6f74206d617463682074686520706044820152743937b23ab1ba13b99031b2b93a34b334b1b0ba329760591b6064820152608401610204565b60608101516040516001600160a01b03909116903480156108fc02916000818181858888f193505050501580156106ba573d6000803e3d6000fd5b5060008581526002602052604090819020600501805460ff19166001179055517fdba962d6e87a6b42891a3279e7cc849950ecc1d1f82d9942faeb0be2e98094fe90610725908790339034909283526001600160a01b03919091166020830152604082015260600190565b60405180910390a15050505050565b60008484848460405160200161074d9493929190610c6d565b604051602081830303815290604052805190602001209050949350505050565b60008260008111801561078257506001548111155b61079e5760405162461bcd60e51b815260040161020490610c01565b6000600260008681526020019081526020016000206040518060c0016040529081600082015481526020016001820180546107d890610c38565b80601f016020809104026020016040519081016040528092919081815260200182805461080490610c38565b80156108515780601f1061082657610100808354040283529160200191610851565b820191906000526020600020905b81548152906001019060200180831161083457829003601f168201915b50505091835250506002820154602082015260038201546001600160a01b031660408201526004820154606082015260059091015460ff161515608091820152015184149250505092915050565b8280546108ab90610c38565b90600052602060002090601f0160209004810192826108cd5760008555610913565b82601f106108e657805160ff1916838001178555610913565b82800160010185558215610913579182015b828111156109135782518255916020019190600101906108f8565b5061091f929150610923565b5090565b5b8082111561091f5760008155600101610924565b634e487b7160e01b600052604160045260246000fd5b600082601f83011261095f57600080fd5b813567ffffffffffffffff8082111561097a5761097a610938565b604051601f8301601f19908116603f011681019082821181831017156109a2576109a2610938565b816040528381528660208588010111156109bb57600080fd5b836020870160208301376000602085830101528094505050505092915050565b6000806000606084860312156109f057600080fd5b833567ffffffffffffffff811115610a0757600080fd5b610a138682870161094e565b9660208601359650604090950135949350505050565b600060208284031215610a3b57600080fd5b5035919050565b60005b83811015610a5d578181015183820152602001610a45565b83811115610a6c576000848401525b50505050565b60008151808452610a8a816020860160208601610a42565b601f01601f19169290920160200192915050565b86815260c060208201526000610ab760c0830188610a72565b6040830196909652506001600160a01b039390931660608401526080830191909152151560a09091015292915050565b60008060408385031215610afa57600080fd5b50508035926020909101359150565b60008060008060808587031215610b1f57600080fd5b843567ffffffffffffffff80821115610b3757600080fd5b610b438883890161094e565b95506020870135915080821115610b5957600080fd5b610b658883890161094e565b94506040870135915080821115610b7b57600080fd5b50610b888782880161094e565b949793965093946060013593505050565b6000600019821415610bbb57634e487b7160e01b600052601160045260246000fd5b5060010190565b85815260a060208201526000610bdb60a0830187610a72565b6040830195909552506001600160a01b0392909216606083015260809091015292915050565b60208082526017908201527f50726f6475637420646f6573206e6f742065786973742e000000000000000000604082015260600190565b600181811c90821680610c4c57607f821691505b6020821081141561035f57634e487b7160e01b600052602260045260246000fd5b60008551610c7f818460208a01610a42565b855190830190610c93818360208a01610a42565b8551910190610ca6818360208901610a42565b019283525050602001939250505056fea26469706673582212207e22306b3e739af09a408f7313e1f4dc184b740264b541bd96ba0be02841080d64736f6c63430008090033","opcodes":"PUSH1 0x80 PUSH1 0x40 MSTORE PUSH1 0x0 PUSH1 0x1 SSTORE CALLVALUE DUP1 ISZERO PUSH2 0x15 JUMPI PUSH1 0x0 DUP1 REVERT JUMPDEST POP PUSH1 0x0 DUP1 SLOAD PUSH1 0x1 PUSH1 0x1 PUSH1 0xA0 SHL SUB NOT AND CALLER OR SWAP1 SSTORE PUSH2 0xCEC DUP1 PUSH2 0x37 PUSH1 0x0 CODECOPY PUSH1 0x0 RETURN INVALID PUSH1 0x80 PUSH1 0x40 MSTORE PUSH1 0x4 CALLDATASIZE LT PUSH2 0x7B JUMPI PUSH1 0x0 CALLDATALOAD PUSH1 0xE0 SHR DUP1 PUSH4 0xB2C33367 GT PUSH2 0x4E JUMPI DUP1 PUSH4 0xB2C33367 EQ PUSH2 0x13F JUMPI DUP1 PUSH4 0xBFA88C49 EQ PUSH2 0x152 JUMPI DUP1 PUSH4 0xC3B451A2 EQ PUSH2 0x172 JUMPI DUP1 PUSH4 0xE0F6EF87 EQ PUSH2 0x1A2 JUMPI PUSH1 0x0 DUP1 REVERT JUMPDEST DUP1 PUSH4 0xC09D4DA EQ PUSH2 0x80 JUMPI DUP1 PUSH4 0x30E6E962 EQ PUSH2 0xA2 JUMPI DUP1 PUSH4 0x4DF8CCB1 EQ PUSH2 0xD5 JUMPI DUP1 PUSH4 0x7ACC0B20 EQ PUSH2 0x10D JUMPI JUMPDEST PUSH1 0x0 DUP1 REVERT JUMPDEST CALLVALUE DUP1 ISZERO PUSH2 0x8C JUMPI PUSH1 0x0 DUP1 REVERT JUMPDEST POP PUSH2 0xA0 PUSH2 0x9B CALLDATASIZE PUSH1 0x4 PUSH2 0x9DB JUMP JUMPDEST PUSH2 0x1B8 JUMP JUMPDEST STOP JUMPDEST CALLVALUE DUP1 ISZERO PUSH2 0xAE JUMPI PUSH1 0x0 DUP1 REVERT JUMPDEST POP PUSH2 0xC2 PUSH2 0xBD CALLDATASIZE PUSH1 0x4 PUSH2 0xA29 JUMP JUMPDEST PUSH2 0x319 JUMP JUMPDEST PUSH1 0x40 MLOAD SWAP1 DUP2 MSTORE PUSH1 0x20 ADD JUMPDEST PUSH1 0x40 MLOAD DUP1 SWAP2 SUB SWAP1 RETURN JUMPDEST CALLVALUE DUP1 ISZERO PUSH2 0xE1 JUMPI PUSH1 0x0 DUP1 REVERT JUMPDEST POP PUSH1 0x0 SLOAD PUSH2 0xF5 SWAP1 PUSH1 0x1 PUSH1 0x1 PUSH1 0xA0 SHL SUB AND DUP2 JUMP JUMPDEST PUSH1 0x40 MLOAD PUSH1 0x1 PUSH1 0x1 PUSH1 0xA0 SHL SUB SWAP1 SWAP2 AND DUP2 MSTORE PUSH1 0x20 ADD PUSH2 0xCC JUMP JUMPDEST CALLVALUE DUP1 ISZERO PUSH2 0x119 JUMPI PUSH1 0x0 DUP1 REVERT JUMPDEST POP PUSH2 0x12D PUSH2 0x128 CALLDATASIZE PUSH1 0x4 PUSH2 0xA29 JUMP JUMPDEST PUSH2 0x365 JUMP JUMPDEST PUSH1 0x40 MLOAD PUSH2 0xCC SWAP7 SWAP6 SWAP5 SWAP4 SWAP3 SWAP2 SWAP1 PUSH2 0xA9E JUMP JUMPDEST PUSH2 0xA0 PUSH2 0x14D CALLDATASIZE PUSH1 0x4 PUSH2 0xAE7 JUMP JUMPDEST PUSH2 0x430 JUMP JUMPDEST CALLVALUE DUP1 ISZERO PUSH2 0x15E JUMPI PUSH1 0x0 DUP1 REVERT JUMPDEST POP PUSH2 0xC2 PUSH2 0x16D CALLDATASIZE PUSH1 0x4 PUSH2 0xB09 JUMP JUMPDEST PUSH2 0x734 JUMP JUMPDEST CALLVALUE DUP1 ISZERO PUSH2 0x17E JUMPI PUSH1 0x0 DUP1 REVERT JUMPDEST POP PUSH2 0x192 PUSH2 0x18D CALLDATASIZE PUSH1 0x4 PUSH2 0xAE7 JUMP JUMPDEST PUSH2 0x76D JUMP JUMPDEST PUSH1 0x40 MLOAD SWAP1 ISZERO ISZERO DUP2 MSTORE PUSH1 0x20 ADD PUSH2 0xCC JUMP JUMPDEST CALLVALUE DUP1 ISZERO PUSH2 0x1AE JUMPI PUSH1 0x0 DUP1 REVERT JUMPDEST POP PUSH2 0xC2 PUSH1 0x1 SLOAD DUP2 JUMP JUMPDEST PUSH1 0x0 DUP3 GT PUSH2 0x20D JUMPI PUSH1 0x40 MLOAD PUSH3 0x461BCD PUSH1 0xE5 SHL DUP2 MSTORE PUSH1 0x20 PUSH1 0x4 DUP3 ADD MSTORE PUSH1 0x1D PUSH1 0x24 DUP3 ADD MSTORE PUSH32 0x5072696365206D7573742062652067726561746572207468616E20302E000000 PUSH1 0x44 DUP3 ADD MSTORE PUSH1 0x64 ADD JUMPDEST PUSH1 0x40 MLOAD DUP1 SWAP2 SUB SWAP1 REVERT JUMPDEST PUSH1 0x1 DUP1 SLOAD SWAP1 PUSH1 0x0 PUSH2 0x21D DUP4 PUSH2 0xB99 JUMP JUMPDEST SWAP1 SWAP2 SSTORE POP POP PUSH1 0x40 DUP1 MLOAD PUSH1 0xC0 DUP2 ADD DUP3 MSTORE PUSH1 0x1 DUP1 SLOAD DUP1 DUP4 MSTORE PUSH1 0x20 DUP1 DUP5 ADD DUP9 DUP2 MSTORE DUP5 DUP7 ADD DUP9 SWAP1 MSTORE CALLER PUSH1 0x60 DUP7 ADD MSTORE PUSH1 0x80 DUP6 ADD DUP8 SWAP1 MSTORE PUSH1 0x0 PUSH1 0xA0 DUP7 ADD DUP2 SWAP1 MSTORE SWAP3 DUP4 MSTORE PUSH1 0x2 DUP3 MSTORE SWAP5 SWAP1 SWAP2 KECCAK256 DUP4 MLOAD DUP2 SSTORE SWAP4 MLOAD DUP1 MLOAD SWAP4 SWAP5 SWAP4 PUSH2 0x27E SWAP4 DUP6 ADD SWAP3 SWAP2 SWAP1 SWAP2 ADD SWAP1 PUSH2 0x89F JUMP JUMPDEST POP PUSH1 0x40 DUP3 DUP2 ADD MLOAD PUSH1 0x2 DUP4 ADD SSTORE PUSH1 0x60 DUP4 ADD MLOAD PUSH1 0x3 DUP4 ADD DUP1 SLOAD PUSH1 0x1 PUSH1 0x1 PUSH1 0xA0 SHL SUB NOT AND PUSH1 0x1 PUSH1 0x1 PUSH1 0xA0 SHL SUB SWAP1 SWAP3 AND SWAP2 SWAP1 SWAP2 OR SWAP1 SSTORE PUSH1 0x80 DUP4 ADD MLOAD PUSH1 0x4 DUP4 ADD SSTORE PUSH1 0xA0 SWAP1 SWAP3 ADD MLOAD PUSH1 0x5 SWAP1 SWAP2 ADD DUP1 SLOAD PUSH1 0xFF NOT AND SWAP2 ISZERO ISZERO SWAP2 SWAP1 SWAP2 OR SWAP1 SSTORE PUSH1 0x1 SLOAD SWAP1 MLOAD PUSH32 0xEB7838AB9C4979F3F2402DADA1C19D5E0800050C8FC07D9168A03EE4C942CB6F SWAP2 PUSH2 0x30C SWAP2 DUP7 SWAP1 DUP7 SWAP1 CALLER SWAP1 DUP8 SWAP1 PUSH2 0xBC2 JUMP JUMPDEST PUSH1 0x40 MLOAD DUP1 SWAP2 SUB SWAP1 LOG1 POP POP POP JUMP JUMPDEST PUSH1 0x0 DUP2 PUSH1 0x0 DUP2 GT DUP1 ISZERO PUSH2 0x32E JUMPI POP PUSH1 0x1 SLOAD DUP2 GT ISZERO JUMPDEST PUSH2 0x34A JUMPI PUSH1 0x40 MLOAD PUSH3 0x461BCD PUSH1 0xE5 SHL DUP2 MSTORE PUSH1 0x4 ADD PUSH2 0x204 SWAP1 PUSH2 0xC01 JUMP JUMPDEST PUSH1 0x0 DUP4 DUP2 MSTORE PUSH1 0x2 PUSH1 0x20 MSTORE PUSH1 0x40 SWAP1 KECCAK256 PUSH1 0x4 ADD SLOAD SWAP2 POP JUMPDEST POP SWAP2 SWAP1 POP JUMP JUMPDEST PUSH1 0x2 PUSH1 0x20 MSTORE PUSH1 0x0 SWAP1 DUP2 MSTORE PUSH1 0x40 SWAP1 KECCAK256 DUP1 SLOAD PUSH1 0x1 DUP3 ADD DUP1 SLOAD SWAP2 SWAP3 SWAP2 PUSH2 0x387 SWAP1 PUSH2 0xC38 JUMP JUMPDEST DUP1 PUSH1 0x1F ADD PUSH1 0x20 DUP1 SWAP2 DIV MUL PUSH1 0x20 ADD PUSH1 0x40 MLOAD SWAP1 DUP2 ADD PUSH1 0x40 MSTORE DUP1 SWAP3 SWAP2 SWAP1 DUP2 DUP2 MSTORE PUSH1 0x20 ADD DUP3 DUP1 SLOAD PUSH2 0x3B3 SWAP1 PUSH2 0xC38 JUMP JUMPDEST DUP1 ISZERO PUSH2 0x400 JUMPI DUP1 PUSH1 0x1F LT PUSH2 0x3D5 JUMPI PUSH2 0x100 DUP1 DUP4 SLOAD DIV MUL DUP4 MSTORE SWAP2 PUSH1 0x20 ADD SWAP2 PUSH2 0x400 JUMP JUMPDEST DUP3 ADD SWAP2 SWAP1 PUSH1 0x0 MSTORE PUSH1 0x20 PUSH1 0x0 KECCAK256 SWAP1 JUMPDEST DUP2 SLOAD DUP2 MSTORE SWAP1 PUSH1 0x1 ADD SWAP1 PUSH1 0x20 ADD DUP1 DUP4 GT PUSH2 0x3E3 JUMPI DUP3 SWAP1 SUB PUSH1 0x1F AND DUP3 ADD SWAP2 JUMPDEST POP POP POP POP PUSH1 0x2 DUP4 ADD SLOAD PUSH1 0x3 DUP5 ADD SLOAD PUSH1 0x4 DUP6 ADD SLOAD PUSH1 0x5 SWAP1 SWAP6 ADD SLOAD SWAP4 SWAP5 SWAP2 SWAP4 PUSH1 0x1 PUSH1 0x1 PUSH1 0xA0 SHL SUB SWAP1 SWAP2 AND SWAP3 POP PUSH1 0xFF AND DUP7 JUMP JUMPDEST DUP2 PUSH1 0x0 DUP2 GT DUP1 ISZERO PUSH2 0x443 JUMPI POP PUSH1 0x1 SLOAD DUP2 GT ISZERO JUMPDEST PUSH2 0x45F JUMPI PUSH1 0x40 MLOAD PUSH3 0x461BCD PUSH1 0xE5 SHL DUP2 MSTORE PUSH1 0x4 ADD PUSH2 0x204 SWAP1 PUSH2 0xC01 JUMP JUMPDEST PUSH1 0x0 DUP4 DUP2 MSTORE PUSH1 0x2 PUSH1 0x20 MSTORE PUSH1 0x40 SWAP1 KECCAK256 PUSH1 0x5 ADD SLOAD DUP4 SWAP1 PUSH1 0xFF AND ISZERO PUSH2 0x4C3 JUMPI PUSH1 0x40 MLOAD PUSH3 0x461BCD PUSH1 0xE5 SHL DUP2 MSTORE PUSH1 0x20 PUSH1 0x4 DUP3 ADD MSTORE PUSH1 0x1E PUSH1 0x24 DUP3 ADD MSTORE PUSH32 0x50726F647563742068617320616C7265616479206265656E20736F6C642E0000 PUSH1 0x44 DUP3 ADD MSTORE PUSH1 0x64 ADD PUSH2 0x204 JUMP JUMPDEST PUSH1 0x0 PUSH1 0x2 PUSH1 0x0 DUP7 DUP2 MSTORE PUSH1 0x20 ADD SWAP1 DUP2 MSTORE PUSH1 0x20 ADD PUSH1 0x0 KECCAK256 PUSH1 0x40 MLOAD DUP1 PUSH1 0xC0 ADD PUSH1 0x40 MSTORE SWAP1 DUP2 PUSH1 0x0 DUP3 ADD SLOAD DUP2 MSTORE PUSH1 0x20 ADD PUSH1 0x1 DUP3 ADD DUP1 SLOAD PUSH2 0x4FD SWAP1 PUSH2 0xC38 JUMP JUMPDEST DUP1 PUSH1 0x1F ADD PUSH1 0x20 DUP1 SWAP2 DIV MUL PUSH1 0x20 ADD PUSH1 0x40 MLOAD SWAP1 DUP2 ADD PUSH1 0x40 MSTORE DUP1 SWAP3 SWAP2 SWAP1 DUP2 DUP2 MSTORE PUSH1 0x20 ADD DUP3 DUP1 SLOAD PUSH2 0x529 SWAP1 PUSH2 0xC38 JUMP JUMPDEST DUP1 ISZERO PUSH2 0x576 JUMPI DUP1 PUSH1 0x1F LT PUSH2 0x54B JUMPI PUSH2 0x100 DUP1 DUP4 SLOAD DIV MUL DUP4 MSTORE SWAP2 PUSH1 0x20 ADD SWAP2 PUSH2 0x576 JUMP JUMPDEST DUP3 ADD SWAP2 SWAP1 PUSH1 0x0 MSTORE PUSH1 0x20 PUSH1 0x0 KECCAK256 SWAP1 JUMPDEST DUP2 SLOAD DUP2 MSTORE SWAP1 PUSH1 0x1 ADD SWAP1 PUSH1 0x20 ADD DUP1 DUP4 GT PUSH2 0x559 JUMPI DUP3 SWAP1 SUB PUSH1 0x1F AND DUP3 ADD SWAP2 JUMPDEST POP POP POP SWAP2 DUP4 MSTORE POP POP PUSH1 0x2 DUP3 ADD SLOAD PUSH1 0x20 DUP3 ADD MSTORE PUSH1 0x3 DUP3 ADD SLOAD PUSH1 0x1 PUSH1 0x1 PUSH1 0xA0 SHL SUB AND PUSH1 0x40 DUP1 DUP4 ADD SWAP2 SWAP1 SWAP2 MSTORE PUSH1 0x4 DUP4 ADD SLOAD PUSH1 0x60 DUP4 ADD MSTORE PUSH1 0x5 SWAP1 SWAP3 ADD SLOAD PUSH1 0xFF AND ISZERO ISZERO PUSH1 0x80 SWAP1 SWAP2 ADD MSTORE DUP2 ADD MLOAD SWAP1 SWAP2 POP CALLVALUE EQ PUSH2 0x60E JUMPI PUSH1 0x40 MLOAD PUSH3 0x461BCD PUSH1 0xE5 SHL DUP2 MSTORE PUSH1 0x20 PUSH1 0x4 DUP3 ADD MSTORE PUSH1 0x1B PUSH1 0x24 DUP3 ADD MSTORE PUSH32 0x496E636F72726563742045746865722076616C75652073656E742E0000000000 PUSH1 0x44 DUP3 ADD MSTORE PUSH1 0x64 ADD PUSH2 0x204 JUMP JUMPDEST DUP1 PUSH1 0x80 ADD MLOAD DUP5 EQ PUSH2 0x67F JUMPI PUSH1 0x40 MLOAD PUSH3 0x461BCD PUSH1 0xE5 SHL DUP2 MSTORE PUSH1 0x20 PUSH1 0x4 DUP3 ADD MSTORE PUSH1 0x35 PUSH1 0x24 DUP3 ADD MSTORE PUSH32 0x436572746966696361746520646F6573206E6F74206D61746368207468652070 PUSH1 0x44 DUP3 ADD MSTORE PUSH21 0x3937B23AB1BA13B99031B2B93A34B334B1B0BA3297 PUSH1 0x59 SHL PUSH1 0x64 DUP3 ADD MSTORE PUSH1 0x84 ADD PUSH2 0x204 JUMP JUMPDEST PUSH1 0x60 DUP2 ADD MLOAD PUSH1 0x40 MLOAD PUSH1 0x1 PUSH1 0x1 PUSH1 0xA0 SHL SUB SWAP1 SWAP2 AND SWAP1 CALLVALUE DUP1 ISZERO PUSH2 0x8FC MUL SWAP2 PUSH1 0x0 DUP2 DUP2 DUP2 DUP6 DUP9 DUP9 CALL SWAP4 POP POP POP POP ISZERO DUP1 ISZERO PUSH2 0x6BA JUMPI RETURNDATASIZE PUSH1 0x0 DUP1 RETURNDATACOPY RETURNDATASIZE PUSH1 0x0 REVERT JUMPDEST POP PUSH1 0x0 DUP6 DUP2 MSTORE PUSH1 0x2 PUSH1 0x20 MSTORE PUSH1 0x40 SWAP1 DUP2 SWAP1 KECCAK256 PUSH1 0x5 ADD DUP1 SLOAD PUSH1 0xFF NOT AND PUSH1 0x1 OR SWAP1 SSTORE MLOAD PUSH32 0xDBA962D6E87A6B42891A3279E7CC849950ECC1D1F82D9942FAEB0BE2E98094FE SWAP1 PUSH2 0x725 SWAP1 DUP8 SWAP1 CALLER SWAP1 CALLVALUE SWAP1 SWAP3 DUP4 MSTORE PUSH1 0x1 PUSH1 0x1 PUSH1 0xA0 SHL SUB SWAP2 SWAP1 SWAP2 AND PUSH1 0x20 DUP4 ADD MSTORE PUSH1 0x40 DUP3 ADD MSTORE PUSH1 0x60 ADD SWAP1 JUMP JUMPDEST PUSH1 0x40 MLOAD DUP1 SWAP2 SUB SWAP1 LOG1 POP POP POP POP POP JUMP JUMPDEST PUSH1 0x0 DUP5 DUP5 DUP5 DUP5 PUSH1 0x40 MLOAD PUSH1 0x20 ADD PUSH2 0x74D SWAP5 SWAP4 SWAP3 SWAP2 SWAP1 PUSH2 0xC6D JUMP JUMPDEST PUSH1 0x40 MLOAD PUSH1 0x20 DUP2 DUP4 SUB SUB DUP2 MSTORE SWAP1 PUSH1 0x40 MSTORE DUP1 MLOAD SWAP1 PUSH1 0x20 ADD KECCAK256 SWAP1 POP SWAP5 SWAP4 POP POP POP POP JUMP JUMPDEST PUSH1 0x0 DUP3 PUSH1 0x0 DUP2 GT DUP1 ISZERO PUSH2 0x782 JUMPI POP PUSH1 0x1 SLOAD DUP2 GT ISZERO JUMPDEST PUSH2 0x79E JUMPI PUSH1 0x40 MLOAD PUSH3 0x461BCD PUSH1 0xE5 SHL DUP2 MSTORE PUSH1 0x4 ADD PUSH2 0x204 SWAP1 PUSH2 0xC01 JUMP JUMPDEST PUSH1 0x0 PUSH1 0x2 PUSH1 0x0 DUP7 DUP2 MSTORE PUSH1 0x20 ADD SWAP1 DUP2 MSTORE PUSH1 0x20 ADD PUSH1 0x0 KECCAK256 PUSH1 0x40 MLOAD DUP1 PUSH1 0xC0 ADD PUSH1 0x40 MSTORE SWAP1 DUP2 PUSH1 0x0 DUP3 ADD SLOAD DUP2 MSTORE PUSH1 0x20 ADD PUSH1 0x1 DUP3 ADD DUP1 SLOAD PUSH2 0x7D8 SWAP1 PUSH2 0xC38 JUMP JUMPDEST DUP1 PUSH1 0x1F ADD PUSH1 0x20 DUP1 SWAP2 DIV MUL PUSH1 0x20 ADD PUSH1 0x40 MLOAD SWAP1 DUP2 ADD PUSH1 0x40 MSTORE DUP1 SWAP3 SWAP2 SWAP1 DUP2 DUP2 MSTORE PUSH1 0x20 ADD DUP3 DUP1 SLOAD PUSH2 0x804 SWAP1 PUSH2 0xC38 JUMP JUMPDEST DUP1 ISZERO PUSH2 0x851 JUMPI DUP1 PUSH1 0x1F LT PUSH2 0x826 JUMPI PUSH2 0x100 DUP1 DUP4 SLOAD DIV MUL DUP4 MSTORE SWAP2 PUSH1 0x20 ADD SWAP2 PUSH2 0x851 JUMP JUMPDEST DUP3 ADD SWAP2 SWAP1 PUSH1 0x0 MSTORE PUSH1 0x20 PUSH1 0x0 KECCAK256 SWAP1 JUMPDEST DUP2 SLOAD DUP2 MSTORE SWAP1 PUSH1 0x1 ADD SWAP1 PUSH1 0x20 ADD DUP1 DUP4 GT PUSH2 0x834 JUMPI DUP3 SWAP1 SUB PUSH1 0x1F AND DUP3 ADD SWAP2 JUMPDEST POP POP POP SWAP2 DUP4 MSTORE POP POP PUSH1 0x2 DUP3 ADD SLOAD PUSH1 0x20 DUP3 ADD MSTORE PUSH1 0x3 DUP3 ADD SLOAD PUSH1 0x1 PUSH1 0x1 PUSH1 0xA0 SHL SUB AND PUSH1 0x40 DUP3 ADD MSTORE PUSH1 0x4 DUP3 ADD SLOAD PUSH1 0x60 DUP3 ADD MSTORE PUSH1 0x5 SWAP1 SWAP2 ADD SLOAD PUSH1 0xFF AND ISZERO ISZERO PUSH1 0x80 SWAP2 DUP3 ADD MSTORE ADD MLOAD DUP5 EQ SWAP3 POP POP POP SWAP3 SWAP2 POP POP JUMP JUMPDEST DUP3 DUP1 SLOAD PUSH2 0x8AB SWAP1 PUSH2 0xC38 JUMP JUMPDEST SWAP1 PUSH1 0x0 MSTORE PUSH1 0x20 PUSH1 0x0 KECCAK256 SWAP1 PUSH1 0x1F ADD PUSH1 0x20 SWAP1 DIV DUP2 ADD SWAP3 DUP3 PUSH2 0x8CD JUMPI PUSH1 0x0 DUP6 SSTORE PUSH2 0x913 JUMP JUMPDEST DUP3 PUSH1 0x1F LT PUSH2 0x8E6 JUMPI DUP1 MLOAD PUSH1 0xFF NOT AND DUP4 DUP1 ADD OR DUP6 SSTORE PUSH2 0x913 JUMP JUMPDEST DUP3 DUP1 ADD PUSH1 0x1 ADD DUP6 SSTORE DUP3 ISZERO PUSH2 0x913 JUMPI SWAP2 DUP3 ADD JUMPDEST DUP3 DUP2 GT ISZERO PUSH2 0x913 JUMPI DUP3 MLOAD DUP3 SSTORE SWAP2 PUSH1 0x20 ADD SWAP2 SWAP1 PUSH1 0x1 ADD SWAP1 PUSH2 0x8F8 JUMP JUMPDEST POP PUSH2 0x91F SWAP3 SWAP2 POP PUSH2 0x923 JUMP JUMPDEST POP SWAP1 JUMP JUMPDEST JUMPDEST DUP1 DUP3 GT ISZERO PUSH2 0x91F JUMPI PUSH1 0x0 DUP2 SSTORE PUSH1 0x1 ADD PUSH2 0x924 JUMP JUMPDEST PUSH4 0x4E487B71 PUSH1 0xE0 SHL PUSH1 0x0 MSTORE PUSH1 0x41 PUSH1 0x4 MSTORE PUSH1 0x24 PUSH1 0x0 REVERT JUMPDEST PUSH1 0x0 DUP3 PUSH1 0x1F DUP4 ADD SLT PUSH2 0x95F JUMPI PUSH1 0x0 DUP1 REVERT JUMPDEST DUP2 CALLDATALOAD PUSH8 0xFFFFFFFFFFFFFFFF DUP1 DUP3 GT ISZERO PUSH2 0x97A JUMPI PUSH2 0x97A PUSH2 0x938 JUMP JUMPDEST PUSH1 0x40 MLOAD PUSH1 0x1F DUP4 ADD PUSH1 0x1F NOT SWAP1 DUP2 AND PUSH1 0x3F ADD AND DUP2 ADD SWAP1 DUP3 DUP3 GT DUP2 DUP4 LT OR ISZERO PUSH2 0x9A2 JUMPI PUSH2 0x9A2 PUSH2 0x938 JUMP JUMPDEST DUP2 PUSH1 0x40 MSTORE DUP4 DUP2 MSTORE DUP7 PUSH1 0x20 DUP6 DUP9 ADD ADD GT ISZERO PUSH2 0x9BB JUMPI PUSH1 0x0 DUP1 REVERT JUMPDEST DUP4 PUSH1 0x20 DUP8 ADD PUSH1 0x20 DUP4 ADD CALLDATACOPY PUSH1 0x0 PUSH1 0x20 DUP6 DUP4 ADD ADD MSTORE DUP1 SWAP5 POP POP POP POP POP SWAP3 SWAP2 POP POP JUMP JUMPDEST PUSH1 0x0 DUP1 PUSH1 0x0 PUSH1 0x60 DUP5 DUP7 SUB SLT ISZERO PUSH2 0x9F0 JUMPI PUSH1 0x0 DUP1 REVERT JUMPDEST DUP4 CALLDATALOAD PUSH8 0xFFFFFFFFFFFFFFFF DUP2 GT ISZERO PUSH2 0xA07 JUMPI PUSH1 0x0 DUP1 REVERT JUMPDEST PUSH2 0xA13 DUP7 DUP3 DUP8 ADD PUSH2 0x94E JUMP JUMPDEST SWAP7 PUSH1 0x20 DUP7 ADD CALLDATALOAD SWAP7 POP PUSH1 0x40 SWAP1 SWAP6 ADD CALLDATALOAD SWAP5 SWAP4 POP POP POP POP JUMP JUMPDEST PUSH1 0x0 PUSH1 0x20 DUP3 DUP5 SUB SLT ISZERO PUSH2 0xA3B JUMPI PUSH1 0x0 DUP1 REVERT JUMPDEST POP CALLDATALOAD SWAP2 SWAP1 POP JUMP JUMPDEST PUSH1 0x0 JUMPDEST DUP4 DUP2 LT ISZERO PUSH2 0xA5D JUMPI DUP2 DUP2 ADD MLOAD DUP4 DUP3 ADD MSTORE PUSH1 0x20 ADD PUSH2 0xA45 JUMP JUMPDEST DUP4 DUP2 GT ISZERO PUSH2 0xA6C JUMPI PUSH1 0x0 DUP5 DUP5 ADD MSTORE JUMPDEST POP POP POP POP JUMP JUMPDEST PUSH1 0x0 DUP2 MLOAD DUP1 DUP5 MSTORE PUSH2 0xA8A DUP2 PUSH1 0x20 DUP7 ADD PUSH1 0x20 DUP7 ADD PUSH2 0xA42 JUMP JUMPDEST PUSH1 0x1F ADD PUSH1 0x1F NOT AND SWAP3 SWAP1 SWAP3 ADD PUSH1 0x20 ADD SWAP3 SWAP2 POP POP JUMP JUMPDEST DUP7 DUP2 MSTORE PUSH1 0xC0 PUSH1 0x20 DUP3 ADD MSTORE PUSH1 0x0 PUSH2 0xAB7 PUSH1 0xC0 DUP4 ADD DUP9 PUSH2 0xA72 JUMP JUMPDEST PUSH1 0x40 DUP4 ADD SWAP7 SWAP1 SWAP7 MSTORE POP PUSH1 0x1 PUSH1 0x1 PUSH1 0xA0 SHL SUB SWAP4 SWAP1 SWAP4 AND PUSH1 0x60 DUP5 ADD MSTORE PUSH1 0x80 DUP4 ADD SWAP2 SWAP1 SWAP2 MSTORE ISZERO ISZERO PUSH1 0xA0 SWAP1 SWAP2 ADD MSTORE SWAP3 SWAP2 POP POP JUMP JUMPDEST PUSH1 0x0 DUP1 PUSH1 0x40 DUP4 DUP6 SUB SLT ISZERO PUSH2 0xAFA JUMPI PUSH1 0x0 DUP1 REVERT JUMPDEST POP POP DUP1 CALLDATALOAD SWAP3 PUSH1 0x20 SWAP1 SWAP2 ADD CALLDATALOAD SWAP2 POP JUMP JUMPDEST PUSH1 0x0 DUP1 PUSH1 0x0 DUP1 PUSH1 0x80 DUP6 DUP8 SUB SLT ISZERO PUSH2 0xB1F JUMPI PUSH1 0x0 DUP1 REVERT JUMPDEST DUP5 CALLDATALOAD PUSH8 0xFFFFFFFFFFFFFFFF DUP1 DUP3 GT ISZERO PUSH2 0xB37 JUMPI PUSH1 0x0 DUP1 REVERT JUMPDEST PUSH2 0xB43 DUP9 DUP4 DUP10 ADD PUSH2 0x94E JUMP JUMPDEST SWAP6 POP PUSH1 0x20 DUP8 ADD CALLDATALOAD SWAP2 POP DUP1 DUP3 GT ISZERO PUSH2 0xB59 JUMPI PUSH1 0x0 DUP1 REVERT JUMPDEST PUSH2 0xB65 DUP9 DUP4 DUP10 ADD PUSH2 0x94E JUMP JUMPDEST SWAP5 POP PUSH1 0x40 DUP8 ADD CALLDATALOAD SWAP2 POP DUP1 DUP3 GT ISZERO PUSH2 0xB7B JUMPI PUSH1 0x0 DUP1 REVERT JUMPDEST POP PUSH2 0xB88 DUP8 DUP3 DUP9 ADD PUSH2 0x94E JUMP JUMPDEST SWAP5 SWAP8 SWAP4 SWAP7 POP SWAP4 SWAP5 PUSH1 0x60 ADD CALLDATALOAD SWAP4 POP POP POP JUMP JUMPDEST PUSH1 0x0 PUSH1 0x0 NOT DUP3 EQ ISZERO PUSH2 0xBBB JUMPI PUSH4 0x4E487B71 PUSH1 0xE0 SHL PUSH1 0x0 MSTORE PUSH1 0x11 PUSH1 0x4 MSTORE PUSH1 0x24 PUSH1 0x0 REVERT JUMPDEST POP PUSH1 0x1 ADD SWAP1 JUMP JUMPDEST DUP6 DUP2 MSTORE PUSH1 0xA0 PUSH1 0x20 DUP3 ADD MSTORE PUSH1 0x0 PUSH2 0xBDB PUSH1 0xA0 DUP4 ADD DUP8 PUSH2 0xA72 JUMP JUMPDEST PUSH1 0x40 DUP4 ADD SWAP6 SWAP1 SWAP6 MSTORE POP PUSH1 0x1 PUSH1 0x1 PUSH1 0xA0 SHL SUB SWAP3 SWAP1 SWAP3 AND PUSH1 0x60 DUP4 ADD MSTORE PUSH1 0x80 SWAP1 SWAP2 ADD MSTORE SWAP3 SWAP2 POP POP JUMP JUMPDEST PUSH1 0x20 DUP1 DUP3 MSTORE PUSH1 0x17 SWAP1 DUP3 ADD MSTORE PUSH32 0x50726F6475637420646F6573206E6F742065786973742E000000000000000000 PUSH1 0x40 DUP3 ADD MSTORE PUSH1 0x60 ADD SWAP1 JUMP JUMPDEST PUSH1 0x1 DUP2 DUP2 SHR SWAP1 DUP3 AND DUP1 PUSH2 0xC4C JUMPI PUSH1 0x7F DUP3 AND SWAP2 POP JUMPDEST PUSH1 0x20 DUP3 LT DUP2 EQ ISZERO PUSH2 0x35F JUMPI PUSH4 0x4E487B71 PUSH1 0xE0 SHL PUSH1 0x0 MSTORE PUSH1 0x22 PUSH1 0x4 MSTORE PUSH1 0x24 PUSH1 0x0 REVERT JUMPDEST PUSH1 0x0 DUP6 MLOAD PUSH2 0xC7F DUP2 DUP5 PUSH1 0x20 DUP11 ADD PUSH2 0xA42 JUMP JUMPDEST DUP6 MLOAD SWAP1 DUP4 ADD SWAP1 PUSH2 0xC93 DUP2 DUP4 PUSH1 0x20 DUP11 ADD PUSH2 0xA42 JUMP JUMPDEST DUP6 MLOAD SWAP2 ADD SWAP1 PUSH2 0xCA6 DUP2 DUP4 PUSH1 0x20 DUP10 ADD PUSH2 0xA42 JUMP JUMPDEST ADD SWAP3 DUP4 MSTORE POP POP PUSH1 0x20 ADD SWAP4 SWAP3 POP POP POP JUMP INVALID LOG2 PUSH5 0x6970667358 0x22 SLT KECCAK256 PUSH31 0x22306B3E739AF09A408F7313E1F4DC184B740264B541BD96BA0BE02841080D PUSH5 0x736F6C6343 STOP ADDMOD MULMOD STOP CALLER "},"methodIdentifiers":{"addProduct(string,uint256,bytes32)":"0c09d4da","buyProduct(uint256,bytes32)":"b2c33367","createCertHash(string,string,string,uint256)":"bfa88c49","platformOwner()":"4df8ccb1","productCount()":"e0f6ef87","products(uint256)":"7acc0b20","showCertHash(uint256)":"30e6e962","verifyCertificate(uint256,bytes32)":"c3b451a2"}}}}}