{
  "_format": "hh-sol-artifact-1",
  "contractName": "LuxuryProductMarketplace",
  "sourceName": "contracts/LuxuryProductMarketplace.sol",
  "abi": [
    {
      "inputs": [],
      "stateMutability": "nonpayable",
      "type": "constructor"
    },
    {
      "anonymous": false,
      "inputs": [
        {
          "indexed": false,
          "internalType": "bytes32",
          "name": "certHash",
          "type": "bytes32"
        }
      ],
      "name": "CertHashCreated",
      "type": "event"
    },
    {
      "anonymous": false,
      "inputs": [
        {
          "indexed": false,
          "internalType": "uint256",
          "name": "id",
          "type": "uint256"
        },
        {
          "indexed": false,
          "internalType": "string",
          "name": "name",
          "type": "string"
        },
        {
          "indexed": false,
          "internalType": "uint256",
          "name": "price",
          "type": "uint256"
        },
        {
          "indexed": false,
          "internalType": "address",
          "name": "seller",
          "type": "address"
        },
        {
          "indexed": false,
          "internalType": "bytes32",
          "name": "certHash",
          "type": "bytes32"
        }
      ],
      "name": "ProductAdded",
      "type": "event"
    },
    {
      "anonymous": false,
      "inputs": [
        {
          "indexed": false,
          "internalType": "uint256",
          "name": "id",
          "type": "uint256"
        },
        {
          "indexed": false,
          "internalType": "address",
          "name": "buyer",
          "type": "address"
        },
        {
          "indexed": false,
          "internalType": "uint256",
          "name": "price",
          "type": "uint256"
        }
      ],
      "name": "ProductBought",
      "type": "event"
    },
    {
      "inputs": [
        {
          "internalType": "string",
          "name": "_name",
          "type": "string"
        },
        {
          "internalType": "uint256",
          "name": "_price",
          "type": "uint256"
        },
        {
          "internalType": "bytes32",
          "name": "_certHash",
          "type": "bytes32"
        }
      ],
      "name": "addProduct",
      "outputs": [],
      "stateMutability": "nonpayable",
      "type": "function"
    },
    {
      "inputs": [
        {
          "internalType": "uint256",
          "name": "_productId",
          "type": "uint256"
        },
        {
          "internalType": "bytes32",
          "name": "_certHash",
          "type": "bytes32"
        }
      ],
      "name": "buyProduct",
      "outputs": [],
      "stateMutability": "payable",
      "type": "function"
    },
    {
      "inputs": [
        {
          "internalType": "string",
          "name": "_productName",
          "type": "string"
        },
        {
          "internalType": "string",
          "name": "_serialNumber",
          "type": "string"
        },
        {
          "internalType": "string",
          "name": "_manufacturer",
          "type": "string"
        },
        {
          "internalType": "uint256",
          "name": "_issueDate",
          "type": "uint256"
        }
      ],
      "name": "createCertHash",
      "outputs": [
        {
          "internalType": "bytes32",
          "name": "",
          "type": "bytes32"
        }
      ],
      "stateMutability": "pure",
      "type": "function"
    },
    {
      "inputs": [],
      "name": "platformOwner",
      "outputs": [
        {
          "internalType": "address",
          "name": "",
          "type": "address"
        }
      ],
      "stateMutability": "view",
      "type": "function"
    },
    {
      "inputs": [],
      "name": "productCount",
      "outputs": [
        {
          "internalType": "uint256",
          "name": "",
          "type": "uint256"
        }
      ],
      "stateMutability": "view",
      "type": "function"
    },
    {
      "inputs": [
        {
          "internalType": "uint256",
          "name": "",
          "type": "uint256"
        }
      ],
      "name": "products",
      "outputs": [
        {
          "internalType": "uint256",
          "name": "id",
          "type": "uint256"
        },
        {
          "internalType": "string",
          "name": "name",
          "type": "string"
        },
        {
          "internalType": "uint256",
          "name": "price",
          "type": "uint256"
        },
        {
          "internalType": "address payable",
          "name": "seller",
          "type": "address"
        },
        {
          "internalType": "bytes32",
          "name": "certHash",
          "type": "bytes32"
        },
        {
          "internalType": "bool",
          "name": "isSold",
          "type": "bool"
        }
      ],
      "stateMutability": "view",
      "type": "function"
    },
    {
      "inputs": [
        {
          "internalType": "uint256",
          "name": "_productId",
          "type": "uint256"
        }
      ],
      "name": "showCertHash",
      "outputs": [
        {
          "internalType": "bytes32",
          "name": "",
          "type": "bytes32"
        }
      ],
      "stateMutability": "view",
      "type": "function"
    },
    {
      "inputs": [
        {
          "internalType": "uint256",
          "name": "_productId",
          "type": "uint256"
        },
        {
          "internalType": "bytes32",
          "name": "_certHash",
          "type": "bytes32"
        }
      ],
      "name": "verifyCertificate",
      "outputs": [
        {
          "internalType": "bool",
          "name": "",
          "type": "bool"
        }
      ],
      "stateMutability": "view",
      "type": "function"
    }
  ],
  "bytecode": "0x6080604052600060015534801561001557600080fd5b50600080546001600160a01b03191633179055610cec806100376000396000f3fe60806040526004361061007b5760003560e01c8063b2c333671161004e578063b2c333671461013f578063bfa88c4914610152578063c3b451a214610172578063e0f6ef87146101a257600080fd5b80630c09d4da1461008057806330e6e962146100a25780634df8ccb1146100d55780637acc0b201461010d575b600080fd5b34801561008c57600080fd5b506100a061009b3660046109db565b6101b8565b005b3480156100ae57600080fd5b506100c26100bd366004610a29565b610319565b6040519081526020015b60405180910390f35b3480156100e157600080fd5b506000546100f5906001600160a01b031681565b6040516001600160a01b0390911681526020016100cc565b34801561011957600080fd5b5061012d610128366004610a29565b610365565b6040516100cc96959493929190610a9e565b6100a061014d366004610ae7565b610430565b34801561015e57600080fd5b506100c261016d366004610b09565b610734565b34801561017e57600080fd5b5061019261018d366004610ae7565b61076d565b60405190151581526020016100cc565b3480156101ae57600080fd5b506100c260015481565b6000821161020d5760405162461bcd60e51b815260206004820152601d60248201527f5072696365206d7573742062652067726561746572207468616e20302e00000060448201526064015b60405180910390fd5b6001805490600061021d83610b99565b90915550506040805160c08101825260018054808352602080840188815284860188905233606086015260808501879052600060a086018190529283526002825294909120835181559351805193949361027e93850192919091019061089f565b50604082810151600283015560608301516003830180546001600160a01b0319166001600160a01b039092169190911790556080830151600483015560a0909201516005909101805460ff191691151591909117905560015490517feb7838ab9c4979f3f2402dada1c19d5e0800050c8fc07d9168a03ee4c942cb6f9161030c918690869033908790610bc2565b60405180910390a1505050565b60008160008111801561032e57506001548111155b61034a5760405162461bcd60e51b815260040161020490610c01565b60008381526002602052604090206004015491505b50919050565b6002602052600090815260409020805460018201805491929161038790610c38565b80601f01602080910402602001604051908101604052809291908181526020018280546103b390610c38565b80156104005780601f106103d557610100808354040283529160200191610400565b820191906000526020600020905b8154815290600101906020018083116103e357829003601f168201915b50505050600283015460038401546004850154600590950154939491936001600160a01b03909116925060ff1686565b8160008111801561044357506001548111155b61045f5760405162461bcd60e51b815260040161020490610c01565b600083815260026020526040902060050154839060ff16156104c35760405162461bcd60e51b815260206004820152601e60248201527f50726f647563742068617320616c7265616479206265656e20736f6c642e00006044820152606401610204565b6000600260008681526020019081526020016000206040518060c0016040529081600082015481526020016001820180546104fd90610c38565b80601f016020809104026020016040519081016040528092919081815260200182805461052990610c38565b80156105765780601f1061054b57610100808354040283529160200191610576565b820191906000526020600020905b81548152906001019060200180831161055957829003601f168201915b50505091835250506002820154602082015260038201546001600160a01b03166040808301919091526004830154606083015260059092015460ff161515608090910152810151909150341461060e5760405162461bcd60e51b815260206004820152601b60248201527f496e636f72726563742045746865722076616c75652073656e742e00000000006044820152606401610204565b8060800151841461067f5760405162461bcd60e51b815260206004820152603560248201527f436572746966696361746520646f6573206e6f74206d617463682074686520706044820152743937b23ab1ba13b99031b2b93a34b334b1b0ba329760591b6064820152608401610204565b60608101516040516001600160a01b03909116903480156108fc02916000818181858888f193505050501580156106ba573d6000803e3d6000fd5b5060008581526002602052604090819020600501805460ff19166001179055517fdba962d6e87a6b42891a3279e7cc849950ecc1d1f82d9942faeb0be2e98094fe90610725908790339034909283526001600160a01b03919091166020830152604082015260600190565b60405180910390a15050505050565b60008484848460405160200161074d9493929190610c6d565b604051602081830303815290604052805190602001209050949350505050565b60008260008111801561078257506001548111155b61079e5760405162461bcd60e51b815260040161020490610c01565b6000600260008681526020019081526020016000206040518060c0016040529081600082015481526020016001820180546107d890610c38565b80601f016020809104026020016040519081016040528092919081815260200182805461080490610c38565b80156108515780601f1061082657610100808354040283529160200191610851565b820191906000526020600020905b81548152906001019060200180831161083457829003601f168201915b50505091835250506002820154602082015260038201546001600160a01b031660408201526004820154606082015260059091015460ff161515608091820152015184149250505092915050565b8280546108ab90610c38565b90600052602060002090601f0160209004810192826108cd5760008555610913565b82601f106108e657805160ff1916838001178555610913565b82800160010185558215610913579182015b828111156109135782518255916020019190600101906108f8565b5061091f929150610923565b5090565b5b8082111561091f5760008155600101610924565b634e487b7160e01b600052604160045260246000fd5b600082601f83011261095f57600080fd5b813567ffffffffffffffff8082111561097a5761097a610938565b604051601f8301601f19908116603f011681019082821181831017156109a2576109a2610938565b816040528381528660208588010111156109bb57600080fd5b836020870160208301376000602085830101528094505050505092915050565b6000806000606084860312156109f057600080fd5b833567ffffffffffffffff811115610a0757600080fd5b610a138682870161094e565b9660208601359650604090950135949350505050565b600060208284031215610a3b57600080fd5b5035919050565b60005b83811015610a5d578181015183820152602001610a45565b83811115610a6c576000848401525b50505050565b60008151808452610a8a816020860160208601610a42565b601f01601f19169290920160200192915050565b86815260c060208201526000610ab760c0830188610a72565b6040830196909652506001600160a01b039390931660608401526080830191909152151560a09091015292915050565b60008060408385031215610afa57600080fd5b50508035926020909101359150565b60008060008060808587031215610b1f57600080fd5b843567ffffffffffffffff80821115610b3757600080fd5b610b438883890161094e565b95506020870135915080821115610b5957600080fd5b610b658883890161094e565b94506040870135915080821115610b7b57600080fd5b50610b888782880161094e565b949793965093946060013593505050565b6000600019821415610bbb57634e487b7160e01b600052601160045260246000fd5b5060010190565b85815260a060208201526000610bdb60a0830187610a72565b6040830195909552506001600160a01b0392909216606083015260809091015292915050565b60208082526017908201527f50726f6475637420646f6573206e6f742065786973742e000000000000000000604082015260600190565b600181811c90821680610c4c57607f821691505b6020821081141561035f57634e487b7160e01b600052602260045260246000fd5b60008551610c7f818460208a01610a42565b855190830190610c93818360208a01610a42565b8551910190610ca6818360208901610a42565b019283525050602001939250505056fea26469706673582212207e22306b3e739af09a408f7313e1f4dc184b740264b541bd96ba0be02841080d64736f6c63430008090033",
  "linkReferences": {},
  "deployedLinkReferences": {}
}